{
  "contractName": "DisburseToken",
  "abi": [
    {
      "inputs": [],
      "payable": false,
      "stateMutability": "nonpayable",
      "type": "constructor"
    },
    {
      "constant": true,
      "inputs": [],
      "name": "admin",
      "outputs": [
        {
          "internalType": "address",
          "name": "",
          "type": "address"
        }
      ],
      "payable": false,
      "stateMutability": "view",
      "type": "function"
    },
    {
      "constant": true,
      "inputs": [],
      "name": "name",
      "outputs": [
        {
          "internalType": "string",
          "name": "",
          "type": "string"
        }
      ],
      "payable": false,
      "stateMutability": "view",
      "type": "function"
    },
    {
      "constant": false,
      "inputs": [
        {
          "internalType": "string",
          "name": "_name",
          "type": "string"
        }
      ],
      "name": "setName",
      "outputs": [],
      "payable": false,
      "stateMutability": "nonpayable",
      "type": "function"
    }
  ],
  "bytecode": "0x608060405234801561001057600080fd5b50336000806101000a81548173ffffffffffffffffffffffffffffffffffffffff021916908373ffffffffffffffffffffffffffffffffffffffff160217905550610385806100606000396000f3fe608060405234801561001057600080fd5b50600436106100415760003560e01c806306fdde0314610046578063c47f0027146100c9578063f851a44014610184575b600080fd5b61004e6101ce565b6040518080602001828103825283818151815260200191508051906020019080838360005b8381101561008e578082015181840152602081019050610073565b50505050905090810190601f1680156100bb5780820380516001836020036101000a031916815260200191505b509250505060405180910390f35b610182600480360360208110156100df57600080fd5b81019080803590602001906401000000008111156100fc57600080fd5b82018360208201111561010e57600080fd5b8035906020019184600183028401116401000000008311171561013057600080fd5b91908080601f016020809104026020016040519081016040528093929190818152602001838380828437600081840152601f19601f82011690508083019250505050505050919291929050505061026c565b005b61018c610286565b604051808273ffffffffffffffffffffffffffffffffffffffff1673ffffffffffffffffffffffffffffffffffffffff16815260200191505060405180910390f35b60018054600181600116156101000203166002900480601f0160208091040260200160405190810160405280929190818152602001828054600181600116156101000203166002900480156102645780601f1061023957610100808354040283529160200191610264565b820191906000526020600020905b81548152906001019060200180831161024757829003601f168201915b505050505081565b80600190805190602001906102829291906102ab565b5050565b6000809054906101000a900473ffffffffffffffffffffffffffffffffffffffff1681565b828054600181600116156101000203166002900490600052602060002090601f016020900481019282601f106102ec57805160ff191683800117855561031a565b8280016001018555821561031a579182015b828111156103195782518255916020019190600101906102fe565b5b509050610327919061032b565b5090565b61034d91905b80821115610349576000816000905550600101610331565b5090565b9056fea265627a7a7231582033c75e6c164d73fe2412cbb1ad520104d7712f2c5677379a9dfc460cb7dbbd3064736f6c63430005100032",
  "source": "// SPDX-License-Identifier: MIT\r\npragma solidity >=0.4.22 <0.8.0;\r\n\r\ncontract DisburseToken {\r\n\r\n    address public admin;\r\n    string public name;\r\n\r\n    modifier restricted() {\r\n        require(\r\n        msg.sender == admin,\r\n        \"This function is restricted to the administrator\"\r\n        );\r\n        _;\r\n    }\r\n\r\n    constructor () public\r\n    {\r\n        admin = msg.sender;\r\n    }\r\n\r\n    function setName(string memory _name) public {\r\n        name = _name;\r\n    }\r\n}",
  "sourcePath": "C:/Users/johnm/OneDrive/Desktop/Code/token/contracts/DisburseToken.sol",
  "compiler": {
    "name": "solc",
    "version": "0.5.16+commit.9c3226ce.Emscripten.clang"
  },
  "schemaVersion": "3.3.2",
  "updatedAt": "2020-11-25T19:39:43.162Z",
  "devdoc": {
    "methods": {}
  },
  "userdoc": {
    "methods": {}
  }
}